:0400000065EF00F0B8
:100008003E82FACF27F0FBCF28F0E9CF29F0EACFDC
:100018002AF0E1CF2BF0E2CF2CF0D9CF2DF0DACFB8
:100028002EF0F3CF2FF0F4CF30F0F6CF31F0F7CF3A
:1000380032F0F8CF33F0F5CF34F03EC035F03FC0A2
:1000480036F040C037F041C038F0F2BCA0A605D069
:10005800A1A603D0F4EC02F00ED0F2BC9DA605D008
:100068009EA603D067EC00F006D0F2BCA3AE03D086
:10007800A4BE40EC02F038C041F037C040F036C0B2
:100088003FF035C03EF034C0F5FF33C0F8FF32C052
:10009800F7FF31C0F6FF30C0F4FF2FC0F3FF2EC0CA
:1000A800DAFF2DC0D9FF2CC0E2FF2BC0E1FF2AC028
:1000B800EAFF29C0E9FF28C0FBFF27C0FAFF3E92EC
:1000C8001100F7EF01F09E96C6AEE9D0C69E000E6D
:1000D800136E000E0A6E000E0B6E120005B21200AF
:1000E80003C00AF004C00BF003C0D9FF04C0DAFF54
:1000F800DF50126E20EE01F00350D9260450DA22A8
:10010800DECF0CF0DDCF0DF0050E0326000E042225
:10011800230E031808E1000E0418D8A404D01E0EFC
:10012800036E000E046E05900150031804E102509E
:100138000418D8B40582C580020E136E1200C58259
:10014800020E136E1200C5AC05D0072A040EEEECA1
:1001580002F01200D8902430266E2330256E2550E8
:10016800C96E23A003D00B0E136E1200030E136E7C
:100178001200C5AC05D0072A040EEEEC02F01200FE
:10018800C58223C025F024C026F026C025F0266AA3
:10019800060E2516000E2616F00E2510236E265084
:1001A800246E2380010E106E020E136E12001004CE
:1001B800D8B41AD00CC0D9FF0DC0DAFFDECF23F0B7
:1001C800DDCF24F020EE03F00C50D9260D50DA22B2
:1001D800DECF08F0DDCF09F020EE02F00C50D92672
:1001E8000D50DA22DF50116E23C0C9FF23A003D0BF
:1001F800050E136E1200030E136E1200C5AC06D066
:10020800072AC59C050EEEEC02F012001106112813
:10021800D8A40ED0050E0C26000E0D22122E04D0E6
:10022800000EEEEC02F01200C582020E136E1200F0
:1002380008C0D9FF09C0DAFFDF50C96E084A092A89
:100248001200C5AC06D0072A040EEEEC02F0C59CDD
:100258001200C586080E136E1200080E136EC586AE
:10026800120008C0D9FF09C0DAFFC9CFDFFF084A6A
:10027800092A010E115ED8B404D0C59A060E136E71
:1002880003D0C58AD2EC02F0C5881200000EEEEC4D
:1002980002F01200072A060EEEEC02F012001350CC
:1002A800000AD8B41BD7010AD8B449D7030AD8B46E
:1002B8007ED7010AD8B4A2D7070AD8B4E7D7010A6B
:1002C800D8B4BFD7030AD8B4C8D7010AD8B4DED780
:1002D8000F0AD8B4C6D7020AD8B435D7010AD8B499
:1002E80048D7D8D7256E33D0010E0E6E12003DC008
:1002F8000FF019D00F50010D000EF324D96E010E26
:10030800F420DA6E3DC0DFFF0F2A7F0E0F640BD09A
:10031800000E0F6E08D00E50000AD8B4EBD7010AB1
:10032800D8B4E5D7E7D7000E0E6E12000F50010DB6
:10033800000EF324D96E010EF420DA6EDF506F6ED2
:100348000F2A7F0E0F641200000E0F6E1200255048
:10035800000AD8B4C9D7010AD8B4E8D7030AD8B470
:10036800DAD7010A1200000102030405060708098A
:100378000A0B0C0D0E0F101112131415161718195D
:100388001A1B1C1D1E1F202122232425262728294D
:100398002A2B2C2D2E2F303132333435363738393D
:1003A8003A3B3C3D3E3F404142434445464748492D
:1003B8004A4B4C4D4E4F505152535455565758591D
:1003C8005A5B5C5D5E5F606162636465666768690D
:1003D8006A6B6C6D6E6F70717273747576777879FD
:1003E8007A7B7C7D7E7F6E0EF66E030EF76E000EB6
:1003F800F86E01EE00F010EE80F00900F5CFEEFF88
:10040800E550E150FAE1EA0EF66E050EF76E000EC1
:10041800F86E0900F5CF3DF000EE01F0240EEE6A0B
:10042800E806FDE13E903E92000EF86E0001B1EF45
:1004380002F0000E6D6E260E6C6E000E6B6E000ED6
:10044800696EFE0E6A6E000E6E6EA49EA38E958077
:10045800958239C03BF03AC03CF020EE50F039505C
:10046800D9263A50DA22030EDE6E000EDE6E000E3A
:10047800DE6E000EDD6E1200550E266EA49E6FCF46
:1004880026F06DA40BD06DBA6BAC04D0030E76ECDD
:1004980001F00FD0010E76EC01F00BD06DBA04D04C
:1004A800000E76EC01F005D026C03DF0020E76EC89
:1004B80001F06C881200000E8D6E000E8C6E000E1E
:1004C800896E000E8A6E000E8B6E070E966E92680D
:1004D800936894689568E40E0F013A6F3F0E396F80
:1004E800FC0E3B6F070E3C6F2F0E386F6168F19E54
:1004F800120020EE58F03950D9263A50DA22480E28
:10050800DF6E39C0D9FF3AC0DAFFEE0EDE6E000E9C
:10051800DE6E000EDE6E000EDD6E20EE54F03950F9
:10052800D9263A50DA22010EDF6E12001E0E036E33
:10053800000E046E1E0E016E000E026E05820590FE
:10054800000E076E800EC76E280EC66E000ECB6EAC
:10055800030EC86E9E969D861200DEEC02F0F28EA7
:10056800F28CC5EC02F0600E396E000E3A6E1DEC8E
:1005780002F0600E396E000E3A6E7DEC02F065EF07
:1005880000F094869488380EC66E000EC56E0A0E6A
:10059800C86EC79CC79E9E96A1961200050E0C2693
:1005A800000E0D22122E03D0040E136E1200010E3F
:1005B800136E1200F2EC02F05FEC02F0E7EC02F0CE
:1005C8009AEC02F01200300ED36E040ED26E000EBA
:1005D8009B6E1200C584000E136E1200D09E12008E
:0305E800120055A9
:020000040020DA
:08000000FFFFFFFFFFFFFFFF00
:020000040030CA
:0E000000FF281F3CFFBF85FF0FC00FE00F4021
:00000001FF
