:040000005DEF00F0C0
:100008004B82FACF03F0FBCF04F0E9CF05F0EACF3B
:1000180006F0E1CF07F0E2CF08F0D9CF09F0DACF48
:100028000AF0F3CF0BF0F4CF0CF0F6CF0DF0F7CFCA
:100038000EF0F8CF0FF0F5CF10F04BC011F04CC018
:1000480012F04DC013F04EC014F0F2BCA0A605D0BB
:10005800A1A603D063EC04F006D0F2BC9DA603D0A1
:100068009EB65FEC00F014C04EF013C04DF012C005
:100078004CF011C04BF010C0F5FF0FC0F8FF0EC0D8
:10008800F7FF0DC0F6FF0CC0F4FF0BC0F3FF0AC06A
:10009800DAFF09C0D9FF08C0E2FF07C0E1FF06C0C8
:1000A800EAFF05C0E9FF04C0FBFF03C0FAFF4B925B
:1000B8001100F6EF03F09E96C6AEE9D0C69E000E7C
:1000C800426E000E3B6E000E3C6E120036B21200FD
:1000D80034C03BF035C03CF034C0D9FF35C0DAFF3E
:1000E800DF50416E20EE01F03450D9263550DA2227
:1000F800DECF3DF0DDCF3EF0060E3426000E352271
:10010800490E341808E1000E3518D8A404D0430E5F
:10011800346E000E356E36903250341804E1335088
:100128003518D8B43682C580020E426E1200C582D8
:10013800020E426E1200C5AC05D0382A040E5DECE2
:1001480004F01200D8904A30026E4930016E015016
:10015800C96E49A003D00B0E426E1200030E426E08
:100168001200C5AC05D0382A040E5DEC04F012006C
:10017800C58249C001F04AC002F002C001F0026A1B
:10018800060E0116000E0216F00E0110496E0250FE
:100198004A6E4980010E3F6E020E426E12003F0405
:1001A800D8B41AD03DC0D9FF3EC0DAFFDECF49F03F
:1001B800DDCF4AF020EE03F03D50D9263E50DA223A
:1001C800DECF39F0DDCF3AF020EE02F03D50D926EF
:1001D8003E50DA22DF50406E49C0C9FF49A003D023
:1001E800050E426E1200030E426E1200C5AC06D018
:1001F800382AC59C050E5DEC04F012004006402824
:10020800D8A40ED0060E3D26000E3E22412E04D064
:10021800000E5DEC04F01200C582020E426E120060
:1002280039C0D9FF3AC0DAFFDF50C96E394A3A2AD5
:100238001200C5AC06D0382A040E5DEC04F0C59C4B
:100248001200C586080E426E1200080E426EC58660
:10025800120039C0D9FF3AC0DAFFC9CFDFFF394AE7
:100268003A2A010E405ED8B404D0C59A060E426EF2
:1002780003D0C58A23EC04F0C5881200000E5DEC9B
:1002880004F01200382A060E5DEC04F01200425009
:10029800000AD8B41BD7010AD8B449D7030AD8B47E
:1002A8007ED7010AD8B4A2D7070AD8B4E7D7010A7B
:1002B800D8B4BFD7030AD8B4C8D7010AD8B4DED790
:1002C8000F0AD8B4C6D7020AD8B435D7010AD8B4A9
:1002D80048D7D8D71FC023F0246A256A1E3423368E
:1002E80001E324802350286E22C023F0246A256A63
:1002F8002134233601E324802350276E2850D8B4B4
:100308000BD02750285CD8B00ED0285000082724DE
:10031800236E180E236407D020C01DF021C01EF0E4
:1003280022C01FF012002750D8B40BD02850275CE9
:10033800D8B00ED0275000082824236E180E236446
:1003480007D01DC01DF01EC01EF01FC01FF01200F8
:10035800060E266E1FBE268E22BE268C1E8EFF0E11
:100368001D16FF0E1E16000E1F16218EFF0E2016DC
:10037800FF0E2116000E22162750285CD8B01BD07D
:10038800D890203621362236270628502718D8B488
:100398000DD0260626C023F0070E2316D8B406D0A3
:1003A800EFD7D8901F321E321D32282A275028181E
:1003B800D8B41FD0F6D72850275CD8B01AD0D89018
:1003C8001D361E361F36280628502718D8B40DD0DB
:1003D800260626C023F0070E2316D8B406D0EFD77A
:1003E800D890223221322032272A27502818D8A420
:1003F800F7D726AE0CD0FF0E1D1AFF0E1E1AFF0EE1
:100408001F1A010E1D26000E1E22000E1F2226ACEA
:100418000CD0FF0E201AFF0E211AFF0E221A010E11
:100428002026000E2122000E2222000E266E1D50CC
:1004380020261E5021221F50222222AE0ED0FF0E4F
:10044800201AFF0E211AFF0E221A010E2026000E76
:100458002122000E2222010E266E20C015F021C096
:1004680016F022C017F028C018F026C019F025ECA5
:1004780003F015C01DF016C01EF017C01FF01200C3
:100488002EC067F00001686B696B2D34673701E394
:1004980068816751716F7151D8A409D0000E2C6E14
:1004A800000E2D6E000E2E6E000E2F6E1200170E0F
:1004B800676F2CC068F02DC069F02EC06AF06729FC
:1004C8006B6F04D0D8906A33693368336B2FFAD7CF
:1004D800000168516C6F2D8EFF0E2C16FF0E2D1625
:1004E800000E2E162C506D6F2D506E6F2E506F6FA4
:1004F800706B8E0E715F71AF16D07151800A8F0FBD
:10050800D8B009D0000E2C6E000E2D6E000E2E6E87
:10051800000E2F6E1200D89070336F336E336D3328
:10052800713FF9D715D0170E71650FD0000E2C6EDC
:10053800000E2D6E000E2E6E000E2F6E1200D8903B
:100548006D376E376F37703771077151D8A4F7D789
:100558006C51D8B408D0701F6F1F6E1F6D6D000EE0
:100568006E236F2370236DC02CF06EC02DF06FC00A
:100578002EF070C02FF0120059EC04F0900E4AECE7
:1005880004F0AA0E4AEC04F051EC04F0910E4AEC87
:1005980004F0010EE1EC03F016C060F017C061F042
:1005A800000EE1EC03F016C062F017C063F055ECE2
:1005B80004F060C01DF061C01EF099EC03F01DC08E
:1005C80064F01EC065F01FC066F0800E000162195D
:1005D8006311D8A414D064C01DF065C01EF066C0B5
:1005E8001FF0000E206E000E216E3F0E226E6EEC84
:1005F80001F01DC064F01EC065F01FC066F0800EDB
:100608000001621917E16329D8A414D064C01DF051
:1006180065C01EF066C01FF0000E206E000E216E31
:10062800BF0E226E6EEC01F01DC064F01EC065F0B6
:100638001FC066F064C029F065C02AF066C02BF0C0
:1006480012001850D8B405D0155016101710D8A499
:100658000CD0000E156E000E166E000E176E1200EE
:10066800182AD890173216321532000E15141A6E41
:10067800000E16141B6EFE0E17141C6E1A501B105B
:100688001C10D8B40CD0ECD7182A010E1526000E71
:100698001622000E1722D890173216321532000E85
:1006A80015141A6E000E16141B6EFF0E17141C6E0E
:1006B8001A501B101C10D8B406D0E6D71806D890CC
:1006C80015361636173616BE03D0020E1860F6D742
:1006D80018A0169ED8901832185017121950D8A47E
:1006E800178E15C015F016C016F017C017F01200B7
:1006F800000E8D6E000E8C6E000E896E000E8A6ED6
:10070800000E8B6E070E966E9268936894689568D3
:10071800E40E0F013A6F3F0E396F3B69070E3C6FCD
:100728002F0E386F6168F19E1200000E206E1EAE0B
:1007380006D01D6C1E1ED8B01E2A010E206E1DC0CC
:1007480015F01EC016F0176A8E0E186E20C019F02C
:1007580025EC03F015C01DF016C01EF017C01FF0E1
:100768001200430E346E000E356E430E326E000ECC
:10077800336E36823690000E386E800EC76E280EA5
:10078800C66E000ECB6E030EC86E9E969D86120036
:100798003AEC04F009EC04F02FEC04F0C0EC02F0A1
:1007A80029C02CF02AC02DF02BC02EF044EC02F00A
:1007B8002CC030F02DC031F0F1D7186E16EC04F0D3
:1007C800C58616EC04F0C9CF19F016EC04F01850E1
:1007D800D8B402D0C59A01D0C58AC58819C016F008
:1007E800176A120000EE72F00C0EEE6AE806FDE1E0
:1007F80000EE32F0190EEE6AE806FDE14B904B92DE
:10080800000EF86E0001CCEF03F094869488380E41
:10081800C66E000EC56E0A0EC86EC79CC79E9E9611
:10082800A1961200C7A403D0156A152A01D0156A2B
:10083800C5501F0B15100009D8B41200F3D7060EC7
:100848003D26000E3E22412E03D0040E426E1200B9
:10085800010E426E120059EC04F0900E4AEC04F0BE
:10086800EE0E4AEC04F055EC04F0120061EC04F0D2
:100878007CEC03F043EC04F0B5EC03F01200300E0E
:10088800D36E040ED26E000E9B6E1200166E16EC1E
:1008980004F016C0C9FFC550120016EC04F0C5825A
:1008A800120016EC04F0C584120016EC04F0C580A2
:1008B8001200C584000E426E1200D09E1200120073
:020000040020DA
:08000000FFFFFFFFFFFFFFFF00
:020000040030CA
:0E000000FF281F3CFFBF85FF0FC00FE00F4021
:00000001FF
